:100000000C94D5250C9406260C9406260C940626F2
:100010000C9406260C9406260C9406260C940626B0
:100020000C9406260C9406260C9406260C940626A0
:100030000C9406260C9406260C9406260C94062690
:100040000C9406260C9480750C9406260C940626B7
:100050000C9406260C9406260C9405A50C9491C2CB
:100060000C9406260C94A6460C9406260C940626A0
:100070000C9406260C9406260C9406260C94062650
:100080000C9406260C9406260C9406260C94062640
:100090000C9406260C9406260C9406260C94062630
:1000A0000C9406260C9406260C9406260C94062620
:1000B0000C9406260C9406260C9406260C94062610
:1000C0000C9406260C9406260C9406260C94062600
:1000D0000C9406260C9406260C9406260C940626F0
:1000E0000C940626A5AB06AA3CAAE1AB3CAA3CAA06
:1000F0003CAA3CAA3CAA3CAA3CAA3CAA3CAA3CAAD0
:100100003CAA3CAA3CAA3CAA3CAA3CAA3CAA3CAABF
:100110003CAA3CAA3CAA3CAA3CAA3CAA3CAA3CAAAF
:10012000DBAB3CAA3CAA3CAA3CAA3CAA3CAA3CAAFF
:100130003CAAB4AB3CAA3CAA3CAA3CAA3CAA3CAA16
:100140003CAA3CAA3CAA3CAAF8AB39AA0EC111C1F0
:1001500000C104C10AC148C115C119C11FC123C1D1
:1001600027C12DC131C135C148C13BC13FC143C1C8
:10017000ADC1B2C1B7C1C1C1CBC144C2D5C1DDC1DE
:10018000E5C1EFC1F9C103C212C21CC244C226C2FA
:1001900030C23AC2084AD73B3BCE016E84BCBFFD99
:1001A000C12F3D6C74319ABD56833DDA3D00C77F47
:1001B00011BED9E4BB4C3E916BAAAABE00000080E0
:1001C0003F05A84CCDB2D44EB93836A9020C50B96F
:1001D000918688083CA6AAAA2ABE000000803F009B
:1001E0004E414E494E495459494E46CDCCCC3D0A1C
:1001F000D7233C17B7D13877CC2B329595E6241FFF
:10020000B14F0A000020410000C84200401C4620B7
:10021000BCBE4CCA1B0E5AAEC59D7400407A10F38A
:100220005A00A0724E18090010A5D4E80000E87624
:1002300048170000E40B54020000CA9A3B0000007B
:10024000E1F505000080969800000040420F000094
:1002500000A08601000000102700000000E8030055
:100260000000006400000000000A0000000000011F
:1002700000000000002C76D888DC674F0823DFC11F
:10028000DFAE59E1B1B796E5E3E453C63AE65199DA
:100290007696E8E6C28426EB898C9B62ED407C6F03
:1002A000FCEFBC9C9F40F2BAA56FA5F490055A2ABA
:1002B000F75C936B6CF9676DC11BFCE0E40D47FEC6
:1002C000F520E6B500D0ED902E03009435770500BB
:1002D00080841E080000204E0A000000C80C333342
:1002E00033330F986E12831141EF8D2114893BE651
:1002F0005516CFFEE6DB18D1844B381BF77C1D90DA
:100300001DA4BBE424203284725E228100C9F12442
:10031000ECA1E53D27434F4D4D554E4943415449CE
:100320004F4E0044525952554E004552524F52536F
:1003300000494E464F004543484F0047322F473350
:100340002062616420706172616D65746572730A08
:1003500000536C6565702E2E2E0043522D313020D7
:1003600056332072656164792E00526573756D692C
:100370006E67207072696E7400436C69636B2074E1
:100380006F20726573756D652E2E2E004E6F206D79
:100390006F76652E00456E642066696C65206C6919
:1003A00073740A00426567696E2066696C65206C2B
:1003B0006973740A005446207072696E74696E67BE
:1003C000206279746520004E6F742054462070724C
:1003D000696E74696E670A0046696C652064656CB5
:1003E000657465643A0044656C6574696F6E206677
:1003F00061696C65642C2046696C653A20006F70F9
:10040000656E206661696C65642C2046696C653A8E
:1004100020002569730025696D2025697300256911
:10042000682025696D202569730025696420256988
:10043000682025696D202569730025697920256963
:1004400064202569682025696D2025697300507234
:10045000696E742074696D653A200050726F74651E
:10046000637465642050696E0A004578747275641F
:1004700065722025730043522D313020563320728F
:10048000656164792E00360331032A0323031503C3
:100490006F66660044454255473A004B494C4C450F
:1004A000442E20004D3131332053006F6B004352F6
:1004B0002D3130205633204F66662E004361703A4E
:1004C000454D455247454E43595F50415253455261
:1004D0003A300A004361703A434153455F4C494703
:1004E00048545F4252494748544E4553533A300AA4
:1004F000004361703A544F47474C455F4C49474869
:1005000054533A300A004361703A534F46545741AE
:1005100052455F504F5745523A300A004361703A96
:100520004C4556454C494E475F444154413A300A88
:10053000004361703A5A5F50524F42453A300A00C8
:100540004361703A4155544F4C4556454C3A300A38
:10055000004361703A5052494E545F4A4F423A311B
:100560000A004361703A50524F47524553533A3054
:100570000A004361703A4155544F5245504F52540E
:100580005F54454D503A310A004361703A45455039
:10059000524F4D3A310A004649524D574152455F3C
:1005A0004E414D453A4D61726C696E2043726561F2
:1005B0006C69747920334420534F555243455F434F
:1005C0004F44455F55524C3A68747470733A2F2FFC
:1005D0006769746875622E636F6D2F4D61726C6907
:1005E0006E4669726D776172652F4D61726C696ECE
:1005F0002050524F544F434F4C5F56455253494F32
:100600004E3A312E30204D414348494E455F5459B2
:1006100050453A43522D31302056332045585452DC
:10062000554445525F434F554E543A312055554934
:10063000443A63656465326132662D343161322D2E
:10064000343734382D396231322D633535633632E3
:100650006633363766660A002F2F20004D31343559
:1006600020533C696E6465783E206F7574206F6618
:100670002072616E67652028302D31290A0053658C
:100680007474696E672054726176656C204163638F
:10069000656C65726174696F6E3A2000536574749D
:1006A000696E67205265747261637420416363658B
:1006B0006C65726174696F6E3A2000536574746979
:1006C0006E67205072696E7420416363656C657259
:1006D0006174696F6E3A200053657474696E6720A7
:1006E0005072696E7420616E642054726176656C1C
:1006F00020416363656C65726174696F6E3A2000B6
:10070000205A00205900580020204D61783A2000DE
:10071000205A00205900580020204D696E3A2000D0
:100720004F6E20004F666600536F667420656E64DE
:1007300073746F70733A2000000136372603FF3C54
:100740003D380EFF2E303E12FFFF0C0809FFFFFF61
:100750001A1C18FFFF08440AFF43FFFFFFFFFFFFBB
:1007600020643A0020693A0020703A0020643A0080
:1007700020693A0020703A0043290A0061626C65E2
:100780006420286D696E2074656D702000436F6C65
:1007900064206578747275646573206172652000E9
:1007A0004F666673657473206170706C6965640070
:1007B0004572723A20546F6F206661722100546F47
:1007C0006F206661722066726F6D20726566657259
:1007D000656E636520706F696E740A004E6F2063EA
:1007E000617365206C696768740A00416374697697
:1007F000652045787472756465723A2000556E6B99
:100800006E6F776E20636F6D6D616E643A202200AB
:100810004B494C4C45442E200053544F50504544B6
:100820002E20005072696E7465722073746F707040
:1008300065642064756520746F206572726F7273D1
:100840002E2046697820746865206572726F722068
:10085000616E6420757365204D39393920746F20BD
:10086000726573746172742E202854656D706572A0
:1008700061747572652069732072657365742E20CA
:1008800053657420697420616674657220726573A3
:1008900074617274696E67290A004E6F204C696E2C
:1008A00065204E756D626572207769746820636893
:1008B00065636B73756D2C204C617374204C696E8D
:1008C000653A20004E6F20436865636B73756D2039
:1008D00077697468206C696E65206E756D626572EB
:1008E0002C204C617374204C696E653A200063685B
:1008F00065636B73756D206D69736D617463682CCE
:10090000204C617374204C696E653A20004C696E0E
:1009100065204E756D626572206973206E6F74205C
:100920004C617374204C696E65204E756D62657202
:100930002B312C204C617374204C696E653A200079
:100940004D313130004D3331004D3834205820596D
:10095000205A2045005446207265616420657272F9
:100960006F720A00446F6E65207072696E74696EF2
:10097000672066696C650A0020496E76616C69645F
:1009800020657874727564657220000000000000B4
:100990000000000000000000009B4300009B43009B
:1009A00000CD434D36303020486F74656E6420743E
:1009B0006F6F20636F6C6420746F206368616E6773
:1009C000652066696C616D656E740A000000000048
:1009D0000000000000000000000000000000000017
:1009E0000000000000000000000000000000000007
:1009F00000000000000000000000000000000000F7
:100A000000000000000000000000000000000000E6
:100A100000000000000000000000000000000000D6
:100A200000000000000000000000000000000000C6
:100A300000000000000000000000000000000000B6
:100A40000000000000000000000000000000008026
:100A5000000008000000000000000000000000800E
:100A600000000800000000000000000000209E9D23
:100A7000E773C800000000000000000000359291FC
:100A800024924800000000000000000000151E91A4
:100A90002493C8000000000000000000001B10911B
:100AA000249200000000000000000000000A1E9DCB
:100AB000E493C800000000000000000000000000F7
:100AC0000000000000000000000000000000000026
:100AD0000000000000000000000000000000000016
:100AE0000000000000000000000000000000000006
:100AF00000000000000000000000000000000000F6
:100B000000000000000000000000000000000000E5
:100B100000000000000000000000000000000000D5
:100B200000000000000000000000000000000000C5
:100B300000000000000000000000000000000000B5
:100B400000000000000000000000000000000000A5
:100B50000000000000000000000000000000000095
:100B60000000000000000000000000000000000085
:100B70000000000000000000000000000000000075
:100B80000000000000000000000000000000000065
:100B90000000000000000000000000000000000055
:100BA00000000000000000000000000000000FFD39
:100BB000FFC0FF80C0600FFFF80F000000001FFDA6
:100BC000FFE3FF80C0600FFFF81E000000003C0143
:100BD00080678001C0600E0E1E3C000000007001A6
:100BE00080670001E0600E0E0F78000000006001D9
:100BF000806E0003E0600E0E07F000000000600150
:100C0000BFEFFF8370600E0E03E000000000600184
:100C10009FCFFF8738600E0E01C00000000060010A
:100C20008E0E000718600E0E01C00000000070015B
:100C30008707000E1E600E0E01C0000000003C0180
:100C40008387800C0E600E0E01C0000000001FFDA7
:100C500081C3FF9CFE7FEE0E01C0000000000FFD6F
:100C600080E0FFBDFF7FEE0E01C00000000000002D
:100C70000000000000000000000000000000000074
:100C80000000000000000000000000000000000064
:100C90000000000000000000000000000000000054
:100CA0000000000000000000000000000000000044
:100CB0000000000000000000000000000000000034
:100CC0000000000000000000000000000000000024
:100CD0000000000000000000000000000000000014
:100CE0000000000000000000000000000000000004
:100CF00000000000000000000000000000000000F4
:100D000000000000000000000000000000000000E3
:100D100000000000000000000000000000000000D3
:100D200000000000000000000000000000000000C3
:100D300000000000000000000000000000000000B3
:100D400000000000000000000000000000000000A3
:100D50000000000000000000000000000000000093
:100D60000000000000000000000000000000000083
:100D70000000000000000000000000000000000073
:100D80000000000000000000000000000000000063
:100D90000000000000000000000000000000000053
:100DA0000000000000000000000000000000000043
:100DB0000000000000000000000000000000000033
:100DC00000000000000000000000000025753A252A
:100DD00030327500253032753A2530327500257570
:100DE0006420253032753A25303275005A0059009A
:100DF0005800092000000000000000000000000072
:100E000000003FFFF00000000000000000000000B4
:100E1000000038007000000000000000000000002A
:100E2000000030FC30000000000000000000000066
:100E3000000020FC10000000000000000000000086
:100E400000002078100000000000000000000000FA
:100E500000002030107BC08C2260000000000000E9
:100E600000002C00D08A219222901FE00000104147
:100E700000002E31D082209222103FF00000082086
:100E800080002F7BD083DE9222603FF0000008209C
:100E900080002F7BD082809222103FF00000104112
:100EA00000002E31D08A409214901FE00000208272
:100EB00000002C00D07221CC08601FE0000041042B
:100EC000000020301000000000003FF0000041044E
:100ED000000020781000000000003FF00000208299
:100EE000000020FC1000000000003FF00000104156
:100EF000000030FC3000000000000FC000000000C7
:100F00000000380070000000000007800000FFFFB4
:100F1000C0003FFFF0000000000003000000FFFFE2
:100F2000C000000000000000000000000000000001
:100F300000003FFFF0000000000000000000000083
:100F400000003800700000000000000000000000F9
:100F500000003387300000000000000000000000A7
:100F60000000278790000000000000000000000043
:100F700000002F87D00000000000000000000000EB
:100F800000002F87D07BC08C226000000000000092
:100F900000002F03D08A219222901FE00000082039
:100FA000800020301082209222103FF000000410B8
:100FB000400020781083DE9222603FF00000041091
:100FC000400020781082809222103FF0000008201C
:100FD00080002030108A409214901FE000001041E1
:100FE00000002F03D07221CC08601FE00000208297
:100FF00000002F87D000000000003FF0000020829A
:1010000000002F87D000000000003FF000001041DA
:10101000000027879000000000003FF0000008203B
:10102000800033873000000000000FC00000000087
:101030000000380070000000000007800000FFFF83
:10104000C0003FFFF0000000000003000000FFFFB1
:10105000C0000000005873746570732F6D6D0058E8
:1010600073746570732F6D6D005873746570732F92
:101070006D6D005973746570732F6D6D00597374C5
:101080006570732F6D6D005973746570732F6D6D7E
:10109000005A73746570732F6D6D005A73746570A8
:1010A000732F6D6D005A73746570732F6D6D0045ED
:1010B00073746570732F6D6D004573746570732F55
:1010C0006D6D004573746570732F6D6D0056656CA2
:1010D0006F636974790056656C6F63697479005643
:1010E000656C6F6369747900416363656C657261F7
:1010F00074696F6E00416363656C65726174696FDA
:101100006E00416363656C65726174696F6E004A5D
:1011100065726B004A65726B004A65726B005374AE
:101120006570732F6D6D0053746570732F6D6D0056
:1011300053746570732F6D6D004520696E206D6D61
:1011400033004520696E206D6D33004520696E20A7
:101150006D6D330046696C2E204469612E0046692E
:101160006C2E204469612E0046696C2E2044696112
:101170002E004F6666004F6E200043616E6E6F74E6
:1011800020656E746572207375626469723A20001E
:10119000022E2E0041626F7574205072696E746564
:1011A000720041626F7574205072696E74657200CE
:1011B00041626F7574205072696E74657200777742
:1011C000772E637265616C6974792E636F6D007739
:1011D00077772E6378737733642E636F6D0077773C
:1011E000772E637265616C6974792E636F6D00454B
:1011F0007874727564657273203100457874727505
:101200006465727320310045787472756465727319
:10121000203100426175643A20313135323030007E
:10122000426175643A2031313532303000426175A7
:10123000643A2031313532303000437265616C6977
:1012400074792056322E350043522D3130205633DA
:1012500000312E312E362E3000437265616C697478
:101260007920334400202F002042403A0020403AA9
:101270000048656174696E6720646F6E652E00209A
:10128000573A00457874727564657220257300437F
:10129000522D31302056332072656164792E004220
:1012A000656420646F6E652E0020573A00426564C5
:1012B0002048656174696E672E00205A3A002059F3
:1012C0003A0020436F756E7420583A0020453A006A
:1012D000205A3A0020593A00583A004B6420002323
:1012E000646566696E65202044454641554C545FEF
:1012F000004B69200023646566696E6520204445C3
:101300004641554C545F004B70200023646566696C
:101310006E65202044454641554C545F0050494479
:10132000204175746F74756E652066696E697368A7
:101330006564212050757420746865206C61737435
:10134000204B702C204B6920616E64204B6420631D
:101350006F6E7374616E74732066726F6D20626558
:101360006C6F7720696E746F20436F6E6669677566
:10137000726174696F6E2E680A005049442041758D
:10138000746F74756E65206661696C656421207484
:10139000696D656F75740A00504944204175746F1A
:1013A00074756E65206661696C6564212054656D95
:1013B000706572617475726520746F6F20686967FB
:1013C000680A00204B643A2000204B693A20002034
:1013D0004B703A20000A20436C617373696320509C
:1013E0004944200A002054753A2000204B753A20C9
:1013F00000206D61783A2000206D696E3A2000204F
:10140000643A200020626961733A2000566D617869
:10141000205800566D6178205800566D617820582C
:1014200000566D6178205900566D6178205900563C
:101430006D6178205900566D6178205A00566D61B3
:1014400078205A00566D6178205A00566D617820D8
:101450004500566D6178204500566D617820450045
:10146000566D696E00566D696E00566D696E005658
:1014700054726176206D696E005654726176206DEB
:10148000696E005654726176206D696E0041636327
:10149000656C00416363656C00416363656C00418A
:1014A0002D7265747261637400412D72657472618E
:1014B000637400412D7265747261637400412D7410
:1014C000726176656C00412D74726176656C0041C5
:1014D0002D74726176656C00416D61782058004111
:1014E0006D6178205800416D6178205800416D6130
:1014F00078205900416D6178205900416D61782054
:101500005900416D6178205A00416D6178205A0080
:10151000416D6178205A00416D6178204500416D30
:101520006178204500416D617820450056782D6A2C
:1015300065726B0056782D6A65726B0056782D6A5D
:1015400065726B0056792D6A65726B0056792D6A4B
:1015500065726B0056792D6A65726B00567A2D6A3A
:1015600065726B00567A2D6A65726B00567A2D6A29
:1015700065726B0056652D6A65726B0056652D6A43
:1015800065726B0056652D6A65726B0057726974DF
:10159000696E6720746F2066696C653A20006F7011
:1015A000656E206661696C65642C2046696C653ADD
:1015B00020006F70656E206661696C65642C204642
:1015C000696C653A200046696C652073656C6563DB
:1015D0007465640A002053697A653A200046696C94
:1015E00065206F70656E65643A20006F70656E20CF
:1015F0006661696C65642C2046696C653A20002040
:1016000066696C653A20004E6F7720002220706F6B
:1016100073002220706172656E743A220053554245
:10162000524F5554494E452043414C4C20746172F1
:101630006765743A22004B494C4C45442E20007497
:101640007279696E6720746F2063616C6C207375AA
:10165000622D67636F64652066696C6573207769C6
:10166000746820746F6F206D616E79206C6576658B
:101670006C732E204D4158206C6576656C20697323
:101680003A0043616E6E6F74206F70656E207375E3
:1016900062646972200054462063617264206F6B3B
:1016A0000A006F70656E526F6F74206661696C65B9
:1016B000640A00766F6C756D652E696E69742066BC
:1016C00061696C65640A004572726F723A00544633
:1016D00020696E6974206661696C0A006175746FB7
:1016E00025692E67004D3234004D323320257300BA
:1016F00024F4D43050C38E20C2A24017828B7011C4
:10170000127A910D816CD90AA861E108C758660761
:10171000615143061E4B5D05C145A7041A411104E2
:10172000093D9803713931034036DB02653391027C
:10173000D4305402802E1D02632CEE01752AC5019F
:10174000B028A001102781018F2564012B244B01B3
:10175000E0223401AC211F018D200D01801FFC000F
:10176000841EED00971DDF00B81CD200E61BC600EA
:10177000201BBC00641AB200B219A8000A19A0000C
:101780006A189900D117910040178B00B516840094
:1017900031167E00B31579003A157300C7146F0037
:1017A00058146A00EE1366008813630025135E0068
:1017B000C7125B006C12570015125400C111510082
:1017C00070114F0021114B00D61049008D104700B9
:1017D0004610440002104200C00F4000800F3E003F
:1017E000420F3C00060F3B00CB0E3800930E370033
:1017F0005C0E3500270E3400F30D3200C10D3100B0
:10180000900D3000600D2E00320D2D00050D2C00C6
:10181000D90C2B00AE0C2900850C29005C0C27008C
:10182000350C27000E0C2600E80B2400C40B240006
:10183000A00B23007D0B23005A0B2100390B210044
:10184000180B2000F80A1F00D90A1E00BB0A1E0050
:101850009D0A1D00800A1D00630A1C00470A1B0028
:101860002C0A1B00110A1A00F7091A00DD091900D9
:10187000C4091900AB091900920917007B09180067
:10188000630917004C0916003609160020091600D6
:101890000A091500F5081500E0081400CC0814002A
:1018A000B8081400A4081400900813007D08120062
:1018B0006B08130058081200460812003408110083
:1018C000230811001208110001081100F007100090
:1018D000E0071000D0071000C0071000B0070F008D
:1018E000A107100091070E0083070F0074070F0077
:1018F00065070E0057070E0049070E003B070D0055
:101900002E070E0020070D0013070D0006070D001F
:10191000F9060C00ED060D00E0060C00D4060C00E4
:10192000C8060C00BC060C00B0060C00A4060B0098
:1019300099060C008D060B0082060B0077060B0043
:101940006C060B0061060A0057060B004C060A00E5
:1019500042060A0038060A002E060A0024060A007B
:101960001A060A001006090007060A00FD0509000C
:10197000F4050900EB050900E2050900D905090095
:10198000D0050900C7050900BE050900B505080016
:10199000AD050800A50509009C0508009405080090
:1019A0008C050800840508007C0508007405080003
:1019B0006C050700650508005D0507005605080071
:1019C0004E050700470507004005080038050700D9
:1019D000310507002A050700230507001C0506003E
:1019E000160507000F050700080506000205070099
:1019F000FB040600F5040700EE040600E8040600F8
:101A0000E2040700DB040600D5040600CF0406004C
:101A1000C9040600C3040600BD040600B70406009E
:101A2000B1040500AC040600A6040600A0040500ED
:101A30009B04060095040500900406008A04050036
:101A400085040500800406007A040500750405007D
:101A5000700405006B0405006604050061040500C0
:101A60005C04050057040500520405004D04050000
:101A700048040500430405003E0404003A04050040
:101A800035040500300404002C040500270404007C
:101A9000230405001E0404001A04040016040500B3
:101AA000110404000D0404000904050004040400EA
:101AB00000040400FC030400F8030400F403040021
:101AC000F0030400EC030400E8030400E403040052
:101AD000E0030400DC030400D8030400D403040082
:101AE000D0030400CC030400C8030300C5030300B3
:101AF00024F404D9201BC40C5C0E9804C4095F02B2
:101B000065077101F405F900FB04B3004804870080
:101B1000C10369005803550003034500BE023A00A3
:101B20008402310053022A00290225000402200009
:101B3000E4011C00C8011900AF011700980114004E
:101B400084011300710110006101100051010E00A9
:101B500043010D0036010B002B010B0020010B008F
:101B6000150109000C01090003010800FB00080031
:101B7000F3000800EB000700E4000600DE000600AA
:101B8000D8000600D2000600CC000500C700050002
:101B9000C2000500BD000400B9000400B500040047
:101BA000B1000400AD000400A9000400A50003007A
:101BB000A20003009F0004009B00030098000300A4
:101BC0009500020093000300900003008D000200C6
:101BD0008B000300880002008600020084000300DE
:101BE000810002007F0002007D0002007B000200F5
:101BF0007900020077000100760002007400020004
:101C000072000100710002006F0002006D0001000F
:101C10006C0002006A000100690002006700010018
:101C2000660001006500010064000200620001001E
:101C300061000100600001005F0002005D00010022
:101C40005C0001005B0001005A0001005900010026
:101C50005800010057000100560001005500010026
:101C60005400010053000000530001005200010025
:101C700051000100500001004F0001004E00000023
:101C80004E0001004D0001004C0001004B0000001F
:101C90004B0001004A00010049000100480000001B
:101CA0004800010047000100460000004600010016
:101CB0004500000045000100440001004300000011
:101CC000430001004200000042000100410000000A
:101CD00041000100400001003F0000003F00010002
:101CE0003E0000003E0001003D0000003D000100FC
:101CF0003C0000003C0000003C0001003B000000F4
:101D00003B0001003A0000003A00010039000000E9
:101D100039000100380000003800000038000100E0
:101D200037000000370001003600000036000000D8
:101D300036000100350000003500000035000100CC
:101D400034000000340000003400010033000000C3
:101D500033000000330001003200000032000000B8
:101D600032000100310000003100000031000100AC
:101D70003000000030000000300001002F000000A3
:101D80002F0000002F0000002F0001002E00000097
:101D90002E0000002E0001002D0000002D0000008C
:101DA0002D0000002D0001002C0000002C00000080
:101DB0002C0000002C0001002B0000002B00000074
:101DC0002B0000002B0001002A0000002A00000068
:101DD0002A0000002A00010029000000290000005C
:101DE000290000002900000029000100280000004F
:101DF0002800000028000000280000002800010042
:101E00002700000027000000270000002700000036
:101E10002700010026000000260000002600000028
:101E2000260000002600010025000000250000001B
:101E3000250000002500000025000000250001000D
:101E40002400000024000000240000002400000002
:101E500024000100230000002300000023000000F4
:101E600023000000230000002300000023000100E5
:101E700022000000220000002200000022000000DA
:101E800022000000220001002100000021000000CB
:101E900021000000210000002100000021000000BE
:101EA00021000100200000002000000020000000B0
:101EB00020000000200000002000000020000000A2
:101EC000200001001F0000001F0000001F00000094
:101ED0001F0000001F0000001F0000001F00010085
:101EE0001E0000001E0000001E0000001E0000007A
:101EF0004D383420582059205A2045006265640A24
:101F0000002C2073797374656D2073746F70706525
:101F10006421204865617465725F49443A20004835
:101F2000656174696E67206661696C656400486507
:101F30006174696E67206661696C656400486561FB
:101F400074696E67206661696C65640048656174D8
:101F5000696E67206661696C6564002044002049F1
:101F60000020204D33303420500020440020490010
:101F700020204D3330312050005049442073657487
:101F800074696E67733A0A002046002042002048B8
:101F90000020204D3134352053004D617465726945
:101FA000616C2068656174757020706172616D6527
:101FB000746572733A0A00205A0020590020204D9F
:101FC000323036205800486F6D65206F6666736545
:101FD000743A0A00204500205A0020590020580079
:101FE00020420020540020204D3230352053004143
:101FF0006476616E6365643A20533C6D696E5F661A
:10200000656564726174653E20543C6D696E5F74F1
:10201000726176656C5F66656564726174653E20A9
:10202000423C6D696E5F7365676D656E745F746960
:102030006D655F6D733E20583C6D61785F78795FA8
:102040006A65726B3E205A3C6D61785F7A5F6A65A3
:10205000726B3E20453C6D61785F655F6A65726BAF
:102060003E0A0020540020520020204D32303420FF
:102070005000416363656C65726174696F6E2028FE
:10208000756E6974732F7332293A20503C707269EF
:102090006E745F616363656C3E20523C726574725E
:1020A0006163745F616363656C3E20543C7472616C
:1020B00076656C5F616363656C3E0A0020450020B5
:1020C0005A0020590020204D3230312058004D61F7
:1020D00078696D756D20416363656C6572617469C3
:1020E0006F6E2028756E6974732F7332293A0A0057
:1020F000204500205A0020590020204D3230332046
:1021000058004D6178696D756D2066656564726112
:102110007465732028756E6974732F73293A0A00E9
:10212000204500205A0020590020204D39322058E7
:102130000053746570732070657220756E69743A0F
:102140000A0020204D3230302044300A0020204D3B
:102150003230302044002044697361626C65640A47
:102160000046696C616D656E742073657474696E88
:1021700067733A0020204D3134392043203B2055ED
:102180006E69747320696E2043656C736975730A98
:10219000002020473231202020203B20556E6974DA
:1021A0007320696E206D6D0A007A5F6D696E3A204A
:1021B00000795F6D696E3A2000785F6D696E3A2034
:1021C000005265706F7274696E6720656E64737417
:1021D0006F70207374617475730A0000002200250B
:1021E0000028002B002E0031003400020100000501
:1021F0000108010B01000020002300260029002C0B
:10220000002F003200000100000301060109010552
:10221000050505070508080808020202020A0A085F
:102220000804040404010101010101010103030385
:102230000303030303040707070C0C0C0C0C0C0C22
:102240000C0202020206060606060606060B0B0B29
:102250000B0B0B0B0B010210202008081020401064
:10226000204080020102010804020101020408105A
:102270002040808040201008040201800402018078
:1022800040201008040201080402010102040810A1
:10229000204080010204081020408000000A0B0248
:1022A000090C0D0E080703040100000000000000E7
:1022B000000000000000000000000000000000001E
:1022C00000000000000000121110000000000000DB
:1022D00000000000000000000000000000000000FE
:1022E000002020506C616E6E657242756666657284
:1022F00042797465733A20002046726565204D6509
:102300006D6F72793A2000436F6D70696C65643A45
:102310002041707220323920323032300A00207C65
:1023200020417574686F723A2043522D3130205627
:10233000330A00323032302D30342D323900204C07
:1023400061737420557064617465643A2000312EA5
:10235000312E362E300A004D61726C696E002053AA
:102360006F6674776172652052657365740A002028
:102370005761746368646F672052657365740A00FF
:102380002042726F776E206F75742052657365748A
:102390000A002045787465726E616C205265736521
:1023A000740A00506F77657255700A007374617219
:1023B000740A006572726F722077726974696E6751
:1023C00020746F2066696C650A00456E6473746FD3
:1023D000707320256320256320256320256300205A
:1023E0005A3A0020593A0020583A00656E647374D6
:1023F0006F7073206869743A2000446F6E652073B3
:102400006176696E672066696C652E0A004D323907
:1024100000290A002062797465733B20637263208F
:102420000053657474696E67732053746F726564CA
:10243000202800202863616C63756C6174656429D1
:10244000210A0020213D2000454550524F4D204398
:102450005243206D69736D61746368202D20287369
:10246000746F726564292000290A002062797465FE
:10247000733B2063726320002073746F7265642065
:1024800073657474696E67732072657472696576BA
:102490006564202800204D61726C696E3D563431B0
:1024A000290A0028454550524F4D3D0045455052A0
:1024B0004F4D2076657273696F6E206D69736D6123
:1024C000746368200048617264636F6465642044CB
:1024D000656661756C742053657474696E677320EA
:1024E0004C6F616465640A00F4010000F4010000AF
:1024F00064000000E80300000000FA430000FA4313
:102500000000A0400000C8410000A0420000A0421E
:102510000000C843EC11BF4346696C616D656E7481
:1025200000E0E10046696C616D656E74004C6F619E
:10253000642073657474696E6773004C6F61642006
:102540006D656D6F7279004C6F6164207365747492
:10255000696E677300496E697469616C697A652098
:10256000454550524F4D00496E697469616C697AF6
:102570006520454550524F4D00496E697469616C44
:10258000697A6520454550524F4D00456E676C692C
:10259000736800456E676C69736800456E676C69A7
:1025A0007368004368696E657365004368696E65AA
:1025B0007365004368696E65736500507265686590
:1025C000617420504C4120636F6E660050726568E4
:1025D00065617420504C4120BEBF00507265686533
:1025E000617420504C4120636F6E660050726568C4
:1025F0006561742041425320636F6E6600507265BE
:10260000686561742041425320BEBF005072656806
:102610006561742041425320636F6E660054656D9E
:10262000706572617475726500C9D20054656D7011
:10263000657261747572650053746F72652073659D
:102640007474696E67730053746F7265206D656D85
:102650006F72790053746F72652073657474696E5C
:1026600067730048656174696E67206661696C65AF
:10267000640048656174696E67206661696C6564B1
:102680000048656174696E67206661696C65640005
:102690004D696E696D756D2054656D70206973208C
:1026A00020313730004D696E696D756D2054656D50
:1026B000702069732020313730004D696E696D7567
:1026C0006D2054656D7020697320203137300042D1
:1026D00061636B004261636B004261636B00524552
:1026E00053554D45204F5054494F4E533A00524593
:1026F00053554D45204F5054494F4E533A00524583
:1027000053554D45204F5054494F4E533A00526552
:1027100073756D65207072696E7400526573756DA6
:1027200065207072696E7400526573756D652070F6
:1027300072696E740045787472756465206D6F728D
:10274000650045787472756465206D6F726500452B
:10275000787472756465206D6F726500507265687B
:102760006561742041425320456E64005072656873
:102770006561742041425320456E64005072656863
:102780006561742041425320456E64005072656853
:10279000656174204142532042656400507265684F
:1027A0006561742041425320C4C70050726568655A
:1027B0006174204142532042656400473238004131
:1027C00075746F20686F6D6500BBBCBD004175748A
:1027D0006F20686F6D65004D34323800536574208A
:1027E000686F6D65206F66667365747300BEBFBBEE
:1027F000BCBDC0C10053657420686F6D65206F66F5
:1028000066736574730044697361626C65207374E8
:1028100065707065727300B5B6B7B8B9BA0044692F
:102820007361626C652073746570706572730043C8
:1028300068616E67652066696C616D656E740043E2
:1028400068616E67652066696C616D656E740043D2
:1028500068616E67652066696C616D656E740043C2
:102860006F6F6C646F776E00C8C900436F6F6C64E4
:102870006F776E005072656865617420504C41003E
:10288000C3C420504C41005072656865617420508B
:102890004C4100507265686561742041425300C329
:1028A000C420414253005072656865617420414202
:1028B00053004D3834004D6F7665206178697300A0
:1028C000C1B2CE004D6F76652061786973004D6F9F
:1028D00076652031306D6D00C1B22031306D6D00F4
:1028E0004D6F76652031306D6D004D6F766520310E
:1028F0006D6D00C1B220316D6D004D6F7665203178
:102900006D6D004D6F766520302E316D6D00C1B25A
:1029100020302E316D6D004D6F766520302E316D7B
:102920006D0070012C0190012701B0012201C0014E
:102930001D01F00118011002130130020E016002A6
:10294000090190020401C002FF000003FA004003E5
:10295000F5008003F000D003EB002004E6007004D3
:10296000E100E004DC004005D700C005D2004006CD
:10297000CD00D006C8008007C3003008BE00F008B4
:10298000B900C009B400B00AAF00B00BAA00D00C67
:10299000A500000EA000500F9B00C0109600501222
:1029A000910000148C00C0158700B0178200B01988
:1029B0007D00D01B7800001E730040206E00902226
:1029C0006900F024640040275F0090295A00E02B42
:1029D0005500102E500020304B0010324600E033DE
:1029E000410090353C001037370070383200A03974
:1029F0002D00B03A2800A03B2300603C1E00103D93
:102A00001900903D1400103E0F00703E0A00C03EB9
:102A10000500003F0000403FFBFF803FF6FFC03F46
:102A2000F1FF544845524D414C2052554E415741BB
:102A30005900546865726D616C2052756E617761E2
:102A400079004572723A204D494E54454D5020420E
:102A50004544004572723A204D494E54454D500050
:102A60004D494E54454D50207472696767657265D3
:102A700064004572723A204D415854454D502042F1
:102A80004544004572723A204D415854454D50001E
:102A90004D415854454D50207472696767657265A1
:102AA00064004D61696E00AEAFB0004D61696E00AB
:102AB0004D6F7665205800C1B22058004D6F766585
:102AC0002058004D6F7665205900C1B22059004D45
:102AD0006F76652059004D6F7665205A00C1B2208F
:102AE0005A004D6F7665205A00457874727564659A
:102AF0007200CCADBA004578747275646572004E90
:102B00006F7A7A6C6500D3D4004E6F7A7A6C650068
:102B100042656400C4C7004265640046616E20736C
:102B20007065656400D5D6D1D20046616E207370A1
:102B300065656400436F6E74726F6C00D8D9004392
:102B40006F6E74726F6C004D6F74696F6E00DFB2E0
:102B5000004D6F74696F6E00507265706172650030
:102B6000A4A5005072657061726500526573756D41
:102B700065207072696E7400F4F5CAF300526573D3
:102B8000756D65207072696E740053746F7020707B
:102B900072696E7400F2F6CAF30053746F7020709D
:102BA00072696E74005052494E542050415553453D
:102BB00044005052494E5420504155534544005012
:102BC00052494E54205041555345440020204E6FE9
:102BD0007A7A6C653A200020204E6F7A7A6C653ADA
:102BE000200020204E6F7A7A6C653A20000006099A
:102BF00000FE000000000001090008FE00000508BA
:102C00000806000040F0C888889878100508080673
:102C10000000C0F88888888888F805050506000146
:102C20002030F830200508080600002070F8202029
:102C30002020E00509090600FF2070A8A8B88888B0
:102C400070200509090600FFE080C0B0A8283028E0
:102C5000280509090600FFF8A88888888888A8F848
:102C6000050A0A0600FE205050505088A8A8887017
:102C700003030306000340A0404361726420696EB1
:102C800073657274656400A8A9AAAB00436172649D
:102C900020696E73657274656400436172642072AA
:102CA000656D6F76656400A8A9ACAD004361726480
:102CB0002072656D6F766564004D6F76696E672E64
:102CC0002E2E004572723A204368616E6765204679
:102CD000696C616D656E74005072696E742070610C
:102CE00075736564004572723A204368616E67656A
:102CF0002046696C616D656E74007C3C3E5E2B3DC8
:102D00003F2F5B5D3B2C2A225C00506C6561736534
:102D1000207265736574005052494E5445522048E4
:102D2000414C544544005072696E7465722068616C
:102D30006C7465642E206B696C6C28292063616C4F
:102D40006C6564210A0062696E004D31313720499B
:102D50004E56414C494420444154412E004739329B
:102D6000205A2573204525730062696E000000001B
:102D70000000000000000000000000484200004881
:102D80004200008040000000005761726E696E676B
:102D90003A20486F6D696E672042756D70204469F6
:102DA0007669736F72203C20310A00020204000031
:102DB000A0400000A0400000004000009B43000035
:102DC0009B430000CD43FFFFFF000C0B00FE0701FB
:102DD00092032120FFFF0AFF07FF00000006000A00
:102DE00001070706020080808080800080030202C5
:102DF000060105A0A00507070600005050F850F88E
:102E000050500507070600002078A07028F0200524
:102E10000707060000C0C8102040981805070706DD
:102E200000006090A040A89068020303060104C05F
:102E30004080030707060100204080808040200377
:102E40000707060100804020202040800505050678
:102E5000000120A870A8200505050600012020F823
:102E600020200203030602FFC04080050101060086
:102E700003F8020202060200C0C0050505060001B3
:102E80000810204080050707060000708898A8C831
:102E9000887003070706010040C040404040E0053D
:102EA0000707060000708808708080F8050707068D
:102EB0000000F81020100808F005070706000010B1
:102EC000305090F81010050707060000F880F00851
:102ED000088870050707060000708080F0888870F9
:102EE000050707060000F808102020202005070726
:102EF0000600007088887088887005070706000043
:102F000070888878080870020505060200C0C000B5
:102F1000C0C00206060602FFC0C000C04080040711
:102F20000706000010204080402010050303060023
:102F300002F800F804070706000080402010204037
:102F4000800507070600007088081020002005078C
:102F50000706000070880868A8A870050707060023
:102F600000708888F8888888050707060000F088C0
:102F700088F08888F0050707060000708880808048
:102F80008870050707060000F08888888888F005A3
:102F90000707060000F88080F08080F80507070624
:102FA0000000F88080F08080800507070600007030
:102FB0008880B8888870050707060000888888F828
:102FC00088888801070706020080808080808080D2
:102FD000050707060000381010101090600507075D
:102FE0000600008890A0C0A0908805070706000092
:102FF000808080808080F805070706000088D8A8B8
:10300000888888880507070600008888C8A89888E7
:10301000880507070600007088888888887005077B
:1030200007060000F08888F080808005070706000A
:103030000070888888A89068050707060000F08857
:1030400088F0A09088050707060000788080700847
:1030500008F0050707060000F820202020202005A2
:103060000707060000888888888888700507070693
:103070000000888888888850200507070600008897
:1030800088888888A850050707060000888850208F
:10309000508888050707060000888888502020206F
:1030A000050707060000F80810204080F80307070E
:1030B000060000E08080808080E0050505060001B4
:1030C0008040201008030707060000E02020202091
:1030D00020E00503030600042050880501010600D6
:1030E00000F8020202060205804005050506000000
:1030F00070087888780507070600008080B0C888C7
:1031000088F00505050600007080808870050707B7
:1031100006000008086898888878050505060000FC
:103120007088F880700507070600003048E04040CE
:1031300040400506060600FF70888878087005077D
:10314000070600008080B0C888888801070706024B
:1031500000800080808080800308080601FF200036
:1031600020202020A040040707060100808090A0B6
:10317000C0A090030707060100C04040404040E067
:10318000050505060000D0A8A8A8A80505050600A5
:1031900000B0C88888880505050600007088888802
:1031A000700506060600FFF08888F0808005060698
:1031B0000600FF788888780808050505060000B035
:1031C000C880808005050506000070807008F00446
:1031D00007070600004040E0404040300505050676
:1031E000000088888898680505050600008888889A
:1031F00050200505050600008888A8A8500505058B
:1032000006000088502050880506060600FF8888C2
:1032100088780870050505060000F8102040F803BE
:1032200007070601002040408040402001070706B4
:103230000200808080808080800307070601008074
:1032400040402040408005020206000368900000D4
:103250000006000A0000000C000A0000000C000A32
:103260000000000C000A0000000C000A0000000C26
:10327000000A0000000C000A0000000C000A000018
:10328000000C000A0000000C000A0000000C000AFC
:103290000000000C000A0000000C000A0000000CF6
:1032A000000A0000000C000A0000000C000A0000E8
:1032B000000C000A0000000C000A0000000C000ACC
:1032C0000000000C000A0000000C000A0000000CC6
:1032D000000A0000000C000A0000000C000A0000B8
:1032E000000C000A0000000C000A0000000C000A9C
:1032F0000000000C000A0000000C000A0000000C96
:10330000000A0B0B160C00FFFFE002000200040095
:103310000D0014802440C4200400040004000B0BA2
:10332000160C00FFF9008A00ABE0AC40AA40AA40AE
:10333000AA40AA80210052808C600B0B160C00FF63
:10334000240024003F80440084000400FFE00A00C1
:1033500011002080C0600B0B160C00FF240024001D
:103360003FC044000400FFE00900090011202120B3
:1033700040E00B0B160C00FF20003DE05120912097
:103380001120FF201120292025E0452080000B0B73
:10339000160C00FF20807FC00840FFE01100208055
:1033A0005F4080203F8000007FC00B0B160C00FFA9
:1033B000224047E09480E4802FE04480F48007E0DE
:1033C0003480C48007E00B0B160C00FF04808FE0F4
:1033D000490019002FC0090009002FC049008900C9
:1033E0000FE00B0B160C00FF10003F8051000E0089
:1033F0003180C0603F8024803F8024803F800B0B61
:10340000160C00FF2280FA4007E0FA808A808A804A
:10341000FA802280B280AAA064E00B0B160C00FF99
:10342000222047409280EFE0220047C0EC4007C0D6
:103430003440C7C004400B0B160C00FF08000FC03F
:1034400008000800FFE008000E000980084008009E
:1034500008000A0B160C00FFFF80008000808080AF
:103460008080FF8080008000804080407FC00B0B08
:10347000160C00FF47C04100EFE0410045006960C5
:10348000C9204D6049204FE0C8200B0B160C00FFEF
:103490000800040004000A000A000A0011001100DC
:1034A0002080404080200B0B160C00FF22402200A1
:1034B000F7E0220023E03520E52025402880294040
:1034C00072200B0A140C00004440444044407FC06A
:1034D00004000400842084208420FFE00B0B160CE1
:1034E00000FF040000007FC00400040004007FC04F
:1034F000040004000400FFE00B0B160C00FFFFE0CB
:10350000110001C0FE00488025000400FFE0150006
:103510002480C4600B0B160C00FF11007FC04440D8
:103520007FC044407FC00400FFE0040004000400AA
:10353000090B160C00FF1000FF8080808080FF8048
:1035400080808080FF8080808080FF800B0B160C45
:1035500000FF7100010003E0F920212041205120EB
:103560008920FA20022004C00B0B160C00FF7FC03C
:103570001100110011001100FFE0110011002100E5
:10358000210041000B0B160C00FF21002200F4402B
:1035900057E0502057C094405440244057C09440B6
:1035A0000B0B160C00FF11000A007FC00400040082
:1035B000FFE004000A0011002080C0600A0B160C16
:1035C00000FF5FC0004084408440BF4084408C4086
:1035D0009440A4408C4081C00B0B160C00FF2400CB
:1035E00027C024002400FFE000001440248047008E
:1035F0000C0070000B0B160C00FF248004800FC021
:10360000E48024803FE024802480288050008FE0E4
:103610000B0B160C00FF08000800FF8088808880D4
:10362000FF8088808880FFA0882007E00B0B160CA5
:1036300000FF27802480F480248074806C80A48024
:10364000248024A028A030600A0B160C00FFFFC0C5
:10365000804080409E40924092409E40804080400A
:10366000FFC080400B0B160C00FF7FC044005FC002
:1036700050405FC050405FC042004A805240A62088
:103680000B0B160C00FF040007E004007FC0404055
:10369000404040407FC00000524089200B0B160C78
:1036A00000FF4780248004800480E86020002FC051
:1036B00024402280310026C00B0B160C00FF7FC077
:1036C0004A407FC00400FFE004003F802080248047
:1036D0002480FFE00B0B160C00FF22004FE0482077
:1036E0004FE0C8004FE04AA05AA06FE04AA04860EF
:1036F0000B0B160C00FFF3C024402A80F10022803F
:1037000065E07220A540208023002C000B0B160CD6
:1037100000FF0400FFE080200000FFE00400240020
:1037200027C0240054008FE00B0B160C00FF73E041
:103730001080510023E0FA202AA022A022A020809D
:10374000214062200B0B160C00FF2200F780228024
:103750003680E2A025A02460682000005240892025
:103760000B0B160C00FF73C0420042007BE04A4086
:103770004A407A404A404240444088400B0B160C75
:1037800000FF0800FFE008001FC030405FC090400D
:103790001FC01040104010C00B0B160C00FF0200A1
:1037A0007FE0420042005FC0420047004A80524032
:1037B000622082000B0B160C00FFF3C09640918034
:1037C000A660A10097C091009500E7E0810081000C
:1037D0000B0B160C00FF0F8088804F8008808F80B5
:1037E00040001FC03540554095403FE00B0B160C84
:1037F00000FF27E02080F880208020803880E08053
:1038000020802080208061800B0B160C00FF1FE0C1
:10381000910057C0144017C0944057C01100554044
:10382000992023000B0B160C00FF208027E0F240AC
:10383000218022403420E240224022402240644045
:103840000B0B160C00FF410041004FE0E92049201E
:1038500049206FE0C92049204920CFE00B0B160C0E
:1038600000FF2100F1004FE0A920F9202FE03920CE
:10387000E92029202FE028200B0B160C00FF8FE0F9
:1038800049200920CBA049204FE048204BA04AA066
:103890006BA050E00B0B160C00FF7FC004004440EF
:1038A000244024800400FFE004000400040004001D
:1038B0000B0B160C00FF820042001FE0C2005FC02D
:1038C00052405FC047004A805240BFE00B0B160CCD
:1038D00000FF04007FE048807FE048804F80400088
:1038E0005FC04840478098600B0B160C00FF01003A
:1038F000EFE0A100A440AFE0A440AFE0A920E920A0
:1039000002800C600B0B160C00FF14C0F6A0BC600C
:10391000A780A880BFE0A920EFE009200FE00920E0
:103920000B0B160C00FF7F80408042806280548029
:103930004880488054A062A0406080200B0B160C89
:1039400000FF04007FE040207FE040007DE0542045
:103950004CA0546064A08D600B0B160C00FF82001D
:103960005FE0040008409FE040200A800A804AA0EF
:1039700092A022600B0B160C00FF41004FE0E820E4
:10398000428044406820C7C0410041004100CFE070
:103990000B0B160C00FF50207D209120FF201120E2
:1039A0007D205520552054205C2010E00B0B160C78
:1039B00000FF3F8020803F802080FFE048007BC0E8
:1039C000494079404880FB600B0B160C00FF040057
:1039D0000400040024802440444044208420040047
:1039E00004001C000B0B160C00FF04000400040074
:1039F000FFE004000A000A00110011002080C060EE
:103A0000090A140A0000888049000800FF8000802D
:103A100000807F8000800080FF800B0B160C00FF71
:103A200021001200FFE0000078804A807A804A80FE
:103A30007A80488059800B0B160C00FF27C00000CD
:103A40000000EFE02100220024402FE02020500061
:103A50008FE00B0B160C00FF20802700F90021C01F
:103A600077002100F9E027007120A92020E00B0B4E
:103A7000160C00FF10401040FDE0104038C03540EB
:103A8000524094401040104010C00B0B160C00FF29
:103A90000040F8400BE0084088405240514021402F
:103AA0005040484089C00A0B160C00FF8400844037
:103AB0008480F5008600840084009400A440C44003
:103AC00083C00B0B160C00FF11207D001100FFE0DE
:103AD0002900FD4049407C8008A0FD600A200B0BB6
:103AE000160C00FF17C02440244067C0A1002FE03F
:103AF000210023802540292021000B0B160C00FFFC
:103B00000800FFE0100027C020806100AFE0210026
:103B10002100210023000B0B160C00FF24002FE0D6
:103B2000B400A480A4A0AAC02A80288029403240E2
:103B300024200B0B160C00FF7FE080003FC02040CC
:103B40003FC010001FC010402880470038E00B0B1A
:103B5000160C00FF7FE040004000400040004000A5
:103B6000400040004000400080000B0B160C00FF9E
:103B7000FFE004007FC044407FC044407FC0440059
:103B800024001800E7E00B0B160C00FF11E0FD000D
:103B9000450029E0FD4011407D40114055409240D4
:103BA00034400B0B160C00FF21005FE04000CFC03B
:103BB00040004FC040004FC048404FC048400B0B32
:103BC000160C00FF04007FC040407FC040407FC013
:103BD00040407FC004405220BFA00B0B160C00FFDA
:103BE0007FC044407FC044407FC004001B00E0E031
:103BF0001100110061000B0B160C00FFFFE0040028
:103C000008007FE049204F2049204F2049204920CB
:103C10007FE00B0B160C00FFFDE05640794038802A
:103C200055409220FFE0040027C02400FFE00B0B6A
:103C3000160C00FFFB8052007BE01240FA4014405B
:103C40003F8020803F8020803F800B0B160C00FFC0
:103C50001FE0200027C06440A7C020002FE02820DC
:103C600027C0210023000B0B160C00FFF3E082207D
:103C70008220FA20822082208A20B220C2E0020024
:103C800002000B0B160C00FF248046A095C0E480B8
:103C900027E04480F5C006A03480C48007E00B0B09
:103CA000160C00FF27C0410087E0E02022804580FD
:103CB000F2800FE03080C14002200B0B160C00FF99
:103CC00002000200220023C0220022002200220063
:103CD00022002200FFE0090B160C00FF080008007C
:103CE000FF80888088808880FF80888088808880A6
:103CF000FF800B0B160C00FF210053A04100F7E0E2
:103D0000510053C0564053C05A4053C042400B0B61
:103D1000160C00FF7FC0040004000400FFE00A004E
:103D20000A0012002220422081E00B0B160C00FF3B
:103D3000110021002FE06100A38023802540254051
:103D40002920210021000B0B160C00FFF7E0942026
:103D5000F42097E09480F48097E09480F4A096603B
:103D600004200B0B160C00FF7BE0948004007FC046
:103D70000400FFE00100FFE02100110007000B0B31
:103D8000160C00FF210047C091002FE06080AFE0DB
:103D9000208024802280208023800B0B160C00FFC3
:103DA00027C02440F7C02EE02AA03EE0E1002FE02B
:103DB0002380254069200B0B160C00FF140027E020
:103DC0002A006200A3C02200220023E02200220079
:103DD000220000060900FE070192032120FFFF08D0
:103DE000FF07FF0000000600000107070602008031
:103DF000808080800080030202060105A0A00507E4
:103E0000070600005050F850F8505005070706000C
:103E1000002078A07028F020050707060000C0C821
:103E200010204098180507070600006090A040A8E1
:103E30009068020303060104C040800307070601DF
:103E4000002040808080402003070706010080405A
:103E5000202020408005050506000120A870A8202C
:103E60000505050600012020F820200203030602B4
:103E7000FFC04080050101060003F80202020602AD
:103E800000C0C00505050600010810204080050798
:103E90000706000070888888888870030707060175
:103EA0000040C040404040E0050707060000708821
:103EB00008708080F8050707060000F81020100839
:103EC00008F005070706000010305090F8101005A4
:103ED0000707060000F880F0080888700507070645
:103EE0000000708080F0888870050707060000F8E1
:103EF0000810202020200507070600007088887021
:103F000088887005070706000070888878080870A0
:103F1000020505060200C0C000C0C0020606060277
:103F2000FFC0C000C040800407070600001020400A
:103F300080402010050303060002F800F80407077C
:103F40000601008040201020408005070706000081
:103F500070880810200020050707060000708808F8
:103F600068A8A870050707060000708888F8888888
:103F700088050707060000F08888F08888F00507A4
:103F8000070600007088808080887005070706009B
:103F900000F08888888888F0050707060000F88008
:103FA00080F08080F8050707060000F88080F08028
:103FB0008080050707060000708880B88888700533
:103FC0000707060000888888F888888801070706A0
:103FD000020080808080808080050707060000380E
:103FE0001010101090600507070600008890A0C010
:103FF000A09088050707060000808080808080F8F8
:1040000005070706000088D8A8888888880507075C
:104010000600008888C8A898888805070706000059
:1040200070888888888870050707060000F08888EF
:10403000F080808005070706000070888888A890B7
:1040400068050707060000F08888F0A0908805073B
:1040500007060000788080700808F0050707060052
:1040600000F820202020202005070706000088886F
:1040700088888888700507070600008888888888EF
:1040800050200507070600008888888888A8500502
:104090000707060000888850205088880507070613
:1040A000000088888850202020050707060000F8B7
:1040B0000810204080F8030707060100E080808098
:1040C0008080E005050506000180402010080307F8
:1040D00007060100E02020202020E0050303060061
:1040E00004205088050101060000F80202020602C1
:1040F00005804005050506000070087888780507EA
:10410000070600008080B0C88888F0050505060015
:10411000007080808870050707060000080868980E
:104120008888780505050600007088F88070050706
:10413000070600003048E040404040050606060003
:10414000FF7088887808700507070600008080B037
:10415000C888888801070706020080008080808068
:10416000800308080601FF200020202020A0400432
:104170000707060000808090A0C0A09003070706F4
:104180000100C04040404040E0050505060000D069
:10419000A8A8A8A8050505060000B0C88888880555
:1041A000050506000070888888700506060600FF71
:1041B000F08888F080800506060600FF78888878F9
:1041C0000808050505060000B0C8808080050505C3
:1041D00006000070807008F00407070600004040E9
:1041E000E040404030050505060000888888986852
:1041F000050505060000888888502005050506008D
:10420000008888A8A85005050506000088502050A1
:10421000880506060600FF88888878087005050569
:10422000060000F8102040F80307070601002040B0
:104230004080404020010707060200808080808087
:104240008080030707060100804040204040800531
:104250000202060002689000000006000000000054
:10426000060000000000060000000000060000003C
:10427000000006000000000006000000000006002C
:104280000000000006000000000006000000000022
:10429000060000000000060000000000060000000C
:1042A00000000600000000000600000000000600FC
:1042B00000000000060000000000060000000000F2
:1042C00006000000000006000000000006000000DC
:1042D00000000600000000000600000000000600CC
:1042E00000000000060000000000060000000000C2
:1042F00006000000000006000000000006000000AC
:10430000000006000000000006000000000006009B
:104310000000000006000000000006000000000091
:104320000600000107070602008000808080808070
:104330000507070600002070A8A0A8702005070741
:10434000060000304040E04050A80505050600008A
:104350008870507088050707060000885020F820F4
:10436000F820010707060200808080008080800519
:1043700008080600003048205050209060030101DA
:10438000060107A0050707060000F888B8B8B88836
:10439000F8050707060001700878887800F8050519
:1043A000050600012850A05028050303060001F867
:1043B0000808020202060206408005070706000000
:1043C000F888A88898A8F8050101060006F80404F2
:1043D0000406000360909060050707060000202097
:1043E000F8202000F804050506000360902040F046
:1043F000030505060003E020E020E00202020602B9
:104400000640800508080600FF8888888898E880AC
:104410008005070706000078989878181818020297
:1044200002060202C0C00202020602FF408003052B
:104430000506000340C04040E00507070600017084
:104440008888887000F8050505060001A0502850EE
:10445000A00507070600008890A858B808080507B7
:10446000070600008890B84898203805080806001C
:1044700000C040C048D838080805070706000020DB
:104480000020408088700508080600004020007069
:1044900088F888880508080600001020007088F851
:1044A00088880508080600002050007088F8888871
:1044B0000508080600006890007088F888880508DC
:1044C000080600005000708888F8888805080806EB
:1044D00000002050207088F8888805070706000033
:1044E0003860A0B8E0A0B80508080600FF70888012
:1044F0008088702060050808060000402000F880D1
:10450000F080F8050808060000081000F880F08028
:10451000F8050808060000205000F880F080F80533
:1045200007070600005000F880F080F8030808062E
:104530000100804000E0404040E003080806010020
:10454000204000E0404040E003080806010040A091
:1045500000E0404040E0030707060100A000E04003
:104560004040E0050707060000704848E8484870EA
:1045700005080806000068900088C8A89888050803
:1045800008060000402070888888887005080806A2
:1045900000001020708888888870050808060000D0
:1045A0002050007088888870050808060000689010
:1045B0000070888888700508080600005000708820
:1045C00088888870050505060001885020508805F8
:1045D00008080600FF1070A8A8A8A87040050808E1
:1045E0000600004020888888888870050808060032
:1045F0000010208888888888700508080600002038
:1046000050008888888870050808060000500088D7
:1046100088888888700508080600001020885020C7
:104620002020200509090600FFC04070484870405E
:1046300040E00408080601FF609090A09090E080A0
:1046400005080806000040200070087888780508F2
:104650000806000010200070087888780508080611
:1046600000002050007008788878050808060000CF
:1046700068900070087888780507070600005000E9
:104680007008788878050808060000205020700817
:10469000788878050606060000D02878A0A850057E
:1046A00006060600FF708088702060050808060076
:1046B000004020007088F88070050808060000108F
:1046C00020007088F880700508080600002050005F
:1046D0007088F8807005070706000050007088F8A1
:1046E000807003080806010080400040C04040E0A0
:1046F00003080806010020400040C04040E00308D5
:104700000806010040A00040C04040E00307070643
:104710000100A00040C04040E0050707060000A0DF
:1047200040A010788870050808060000689000B066
:10473000C88888880508080600004020007088881E
:1047400088700508080600001020007088888870AE
:104750000508080600002050007088888870050849
:1047600008060000689000708888887005070706B2
:10477000000050007088888870050505060001203B
:1047800000F800200507070600FF1070A8A8A87011
:1047900040050808060000402000888888986805C1
:1047A0000808060000102000888888986805080816
:1047B00006000020500088888898680507070600D2
:1047C00000500088888898680509090600FF1020B5
:1047D00000888888F808700407070601FFC0406059
:1047E000506040E00508080600FF5000888888787F
:1047F000087000002100240027002A002D0030004E
:10480000330001010000040107010A015072696EC2
:104810007420706175736564004730204633303012
:104820003020583020593000004739322045257358
:10483000004730205A2573004D3130392053256907
:10484000004D31343020532569004D31303620532E
:10485000323535004730205A25730047323820580A
:1048600030205930004D31303920532569004D3109
:10487000393020532569005072696E742061626F6F
:104880007274656400506F7765722D4C6F7373207E
:104890005265636F766572793F00A4A5F4F5CAF39B
:1048A000203F00506F7765722D4C6F7373205265F7
:1048B000636F766572793F00496E666F207363722D
:1048C00065656E00ECEDEEEF00496E666F20736378
:1048D0007265656E0054756E6500CFF00054756E9C
:1048E00065004C616E6775616765004C616E677548
:1048F000616765004C616E67756167650050617541
:104900007365207072696E7400F1F2CAF300506131
:10491000757365207072696E74005072696E7420D0
:1049200066726F6D20544600AFB0005072696E74AD
:104930002066726F6D205446004E6F2054462063EF
:1049400061726400F9A8004E6F20544620636172C2
:10495000640020746F6F206C6F6E672065787472CE
:104960007573696F6E2070726576656E7465640A22
:104970000020636F6C6420657874727573696F6E64
:104980002070726576656E7465640A00656E717577
:10499000657565696E672022006563686F3A002E51
:1049A0000A006F70656E206661696C65642C204634
:1049B000696C653A200057726974696E6720746F7C
:1049C0002066696C653A20004D3630302042300058
:1049D000537065656400D1D200537065656400460C
:1049E0006C6F7700CCADD1D200466C6F770042611E
:1049F000627973746570205A0042616279737465DC
:104A000070205A004261627973746570205A0050B8
:104A100072656865617420504C4120456E64005099
:104A200072656865617420504C4120456E64005089
:104A300072656865617420504C4120456E64005079
:104A400072656865617420504C4120426564005075
:104A500072656865617420504C4120C4C700507273
:104A6000656865617420504C4120426564002E0ADF
:104A70000046696C652862696E292064656C6574FE
:104A800065640044656C6574696F6E2862696E299F
:104A9000206661696C6564004572726F722077727E
:104AA0006974696E6720746F20454550524F4D21DF
:104AB0000A00526573656E643A20006F6B002074C3
:104AC0006F6F206C6F6E6720657874727573696F95
:104AD0006E2070726576656E7465640A0020636F7F
:104AE0006C6420657874727573696F6E207072657E
:104AF00076656E7465640A00627573793A20706138
:104B00007573656420666F7220696E7075740A0033
:104B1000627573793A2070617573656420666F728F
:104B200020757365720A00627573793A2070726F2E
:104B300063657373696E670A004B494C4C45442E9C
:104B400020004B494C4C2063617573656420627989
:104B5000204B494C4C20627574746F6E2F70696ED7
:104B60000A004B494C4C45442E20004B494C4C20EC
:104B700063617573656420627920746F6F206D7551
:104B8000636820696E6163746976652074696D6518
:104B9000202D2063757272656E7420636F6D6D6178
:104BA0006E643A200000AAF700F611241FBECFEF72
:104BB000D1E2DEBFCDBF00E00CBF15E0A0E0B2E067
:104BC000E4E5F3E102E00BBF02C007900D92A636C8
:104BD000B107D9F72AE1A6E6B5E001C01D92A832D7
:104BE000B207E1F715E2C4EDD5E200E006C0219777
:104BF0000109802FFE010F940C09C33DD10780E00D
:104C00000807A9F70E9478EF0D9499090C94000009
:104C10002F923F924F925F926F927F928F929F92CC
:104C2000AF92BF92CF92DF92EF92FF920F931F93BA
:104C3000CF93DF93CDB7DEB7C056D1090FB6F89446
:104C4000DEBF0FBECDBF0091C10F20E6029F8001E5
:104C500011240F5B114F8091CF1580FF1AC0E9E935
:104C6000F9E484917F013FEFE31AF30A811102C056
:104C7000780104C00E944342F701F3CFD7018D9120
:104C80007D01882319F00E944342F8CF8AE00E94F8
:104C9000434281E090E09093F7198093F6191092C7
:104CA0009105109290058FE38093940510929305DF
:104CB0001092920584E0E0E8F5E0DF011D928A950C
:104CC000E9F7F80180810F5F1F4F8032D1F38E34F6
:104CD000C9F4818190ED980F9A3020F08D3211F057
:104CE0008B3281F4DF0112969D012F5F3F4F8C9133
:104CF00080538A3010F4D901F7CFFD0111968081DD
:104D00008032D9F3F093FF19E093FE197F01BFEFD2
:104D1000EB1AFB0A10816AE270E0C7010F94610987
:104D2000009731F0FC01319780818032E1F31182EC
:104D30001D3431F1143521F1173411F1E9E9F9E4A9
:104D400084918F010F5F1F4F882321F00E944342FF
:104D5000F801F6CF6091FE197091FF198DEF97E081
:104D60000E9465EC82E20E9443428AE00E94434234
:104D70001092F7191092F6190E9482EB0C94023DE2
:104D8000C701FC01208101962032D9F320532A303B
:104D9000A8F61093940580E090E06AE03196DF0178
:104DA00011972C91022E000C330B20533109689F70
:104DB000A001699F500D1124C901840F951F208106
:104DC00020532A3058F39093930580939205DF0186
:104DD00031962C912032D9F31D34A9F48E319105EE
:104DE000D1F03CF487319105B1F08C31910559F443
:104DF00012C0853791053CF08737910564F0803A01
:104E0000E3E09E0741F00091FE1960E070E0EE24BF
:104E1000E394F12C43C0B0939105A09390057FC01B
:104E2000213209F445C03FEBB32EB20E49E1A42E66
:104E3000AB1408F45FC0AF01FA0130814F5F5F4FE0
:104E40003032D1F340ED430F4A3008F047C0AF0194
:104E50008B2C912C640123E0D594C7942A95E1F71B
:104E6000960120583A4F69012B2D2770D70102C0B7
:104E7000AA0FBB1F2A95E2F79D01D6013C91232B77
:104E80002C9341155105A1F1401BD401AA59BA4FE9
:104E90004C93208121542A3190F5DF01FD01319698
:104EA0002C912111BDCF709391056093900537C06F
:104EB0001D3409F0B8CF8032910509F0B4CFF093DA
:104EC0009105E093900563E270E0CF010F946109D2
:104ED000009709F4A9C6DC011C9221C043ED430FE1
:104EE000423008F4B4CF3B3211F00C94893CAFCF80
:104EF00040E0CBCF6115710561F6BD01CACFDF017E
:104F0000AD014F5F5F4F2C9120532A3010F4DA012E
:104F1000F7CFFD01119620812032D9F3BECF8091C9
:104F200094058D3409F480C6843511F40C944D3CFD
:104F3000873409F003CF2090920530909305B4E0B8
:104F40002B16310409F40DC54CF437FC11CF8091B8
:104F50000602F2E02F16310404F517C02AE52216E6
:104F6000310409F4F9C534F44CE12416310409F490
:104F70003DC5FECE5BE52516310409F4F0C58CE590
:104F80002816310409F4EFC5F3CE882309F4F0CED6
:104F90000E94C5410E94A7EAEBCE882309F4E8CE1F
:104FA0000E94C54182E50E94B941882309F43CC1B1
:104FB0000E9457414B015C0120E030E0A9010E94B2
:104FC00083FF882309F45CC120914E1830914F185B
:104FD00040915018509151182DA73EA74FA758AB9C
:104FE0008091521890915318A0915418B09155186F
:104FF00089AB9AABABABBCAB2091491230914A1252
:1050000040914B1250914C1229AF3AAF4BAF5CAF6D
:1050100080914D1290914E12A0914F12B09150126A
:105020008DAB9EABAFABB8AF6DA57EA58FA598A994
:105030000E9483FF81110DC02DA93EA94FA958AD33
:1050400069A97AA98BA99CA90E9483FF882309F4E6
:1050500017C111E092E02916310409F010E020E0B8
:1050600030E0A901C501B4010E9483FF881F882791
:10507000881F181759F020E030E040E85FEB2996D0
:105080002CAF3DAF4EAF5FAF29970AC080E090E0F4
:10509000A0E8BFE329968CAF9DAFAEAFBFAF299715
:1050A0002DA53EA54FA558A969AD7AAD8BAD9CAD98
:1050B0000F941C0625966CAF7DAF8EAF9FAF2597E2
:1050C00029A93AA94BA95CA96DA97EA98FA998AD78
:1050D0000F941C066B017C0125962CAD3DAD4EADA9
:1050E0005FAD2597CA01B9010E94E8FF2B013C0181
:1050F000A7019601C701B6010E94E8FF9B01AC0120
:10510000C301B2010F941D060F94890821966CAF5C
:105110007DAF8EAF9FAF219720E030E040E05FE3AE
:105120000E94E8FF2B013C01A5019401C501B401D7
:105130000E94E8FF4B015C01A3019201C301B2018F
:105140000E94E8FF9B01AC01C501B4010F941C064D
:105150000F94890829962CAD3DAD4EAD5FAD2997D2
:105160000E94E8FF4B015C01C701B60190582196EF
:105170002CAD3DAD4EAD5FAD21970F94F906A50165
:1051800094010E94E8FF6B017C0129AD3AAD4BAD63
:105190005CAD6DA57EA58FA598A90F941D0620E096
:1051A00030E040E05FE30E94E8FF9B01AC01C701F3
:1051B000B6010F941D062DA53EA54FA558A90F9425
:1051C0001C066B017C012DA93EA94FA958AD69A908
:1051D0007AA98BA99CA90F941D0620E030E040E03D
:1051E0005FE30E94E8FF2B013C0121962CAD3DAD11
:1051F0004EAD5FAD219725966CAD7DAD8EAD9FAD6B
:1052000025970F94F906A50194010E94E8FF9B01E0
:10521000AC01C301B2010F941D0629A93AA94BA9FB
:105220005CA90F941C0614C089E40E94B94188232C
:1052300029F00E9457416B017C0103C0C12CD12C85
:1052400076018AE40E94B9418823E9F00E9457411F
:1052500069AF7AAF8BAF9CAF20E030E0A901C70106
:10526000B6010E9483FF81111BC020E030E0A9013C
:1052700069AD7AAD8BAD9CAD0E9483FF811110C0EA
:10528000E7ECF6E15BC320E030E0A901C701B6011D
:105290000E9483FF8823A1F319AE1AAE1BAE1CAE89
:1052A000A701960150582DA73EA74FA758AB89AD2F
:1052B0009AADABADBCADB05889AB9AABABABBCABA8
:1052C000CA01B9010E94E8FF4B015C0129A93AA972
:1052D0004BA95CA9CA01B9010E94E8FF9B01AC017E
:1052E000C501B4010F941D060F94890865966CAF33
:1052F0007DAF8EAF9FAF659720914E1830914F18BC
:1053000040915018509151182DAB3EAB4FAB58AF58
:10531000A70196016DA97EA98FA998AD0F941D06CE
:1053200029966CAF7DAF8EAF9FAF299780915218B1
:1053300090915318A0915418B091551821968CAFA4
:105340009DAFAEAFBFAF219729AD3AAD4BAD5CADD0
:10535000BC01CD010F941D0669966CAF7DAF8EAF79
:105360009FAF69972091491230914A1240914B1298
:1053700050914C122D962CAF3DAF4EAF5FAF2D9795
:1053800029962CAD3DAD4EAD5FAD29972D966CADF8
:105390007DAD8EAD9FAD2D970F941C066B017C01EA
:1053A00080914D1290914E12A0914F12B0915012D7
:1053B00061968CAF9DAFAEAFBFAF619769962CADD4
:1053C0003DAD4EAD5FAD6997BC01CD010F941C069C
:1053D0004B015C0120915618309157184091581894
:1053E000509159186D962CAF3DAF4EAF5FAF6D9792
:1053F00060915112709152128091531290915412F7
:105400000F941C0625966CAF7DAF8EAF9FAF25978E
:10541000A70196016DA57EA58FA598A90E94E8FF1A
:105420002B013C01A501940169A97AA98BA99CA92A
:105430000E94E8FF9B01AC01C301B2010F941D065D
:105440002B013C01A50194016DA57EA58FA598A90E
:105450000E94E8FF4B015C01A701960169A97AA9A6
:105460008BA99CA90E94E8FF9B01AC01C501B40176
:105470000F941C06A30192010F9490066B017C010E
:1054800020E030E0A9010E9483FF87FF0AC02BEDD6
:105490003FE049EC50E4C701B6010F941D066B01D3
:1054A0007C0132E02316310451F42BED3FE049EC4E
:1054B00050E4C701B6010F941C066B017C0120E08B
:1054C00030E0A901C701B6010E9483FF811126C007
:1054D0002D962CAD3DAD4EAD5FAD2D976DA97EA93E
:1054E0008FA998AD0E9483FF811118C061962CADE1
:1054F0003DAD4EAD5FAD619721966CAD7DAD8EAD8E
:105500009FAD21970E9483FF811108C01BEDC12E22
:105510001FE0D12E19ECE12E10E4F12EA701960127
:1055200065966CAD7DAD8EAD9FAD65970E94E8FF31
:105530009B01AC010E94E8FF4B015C0125962CAD5C
:105540003DAD4EAD5FAD2597CA01B9010E94E8FFA0
:105550009B01AC01C501B4010F941D060F9489088D
:105560004B015C012FE632E143E85AE30E9483FFDE
:1055700087FDDEC1C501B4010F9492070F94660741
:105580007EAF6DAF672B21F421E030E03EAF2DAF51
:1055900040905A1850905B1860905C1870905D189D
:1055A000ADACBEACB50180E090E00E9487FF4B013E
:1055B0005C019B01AC01C701B6010F94F9066DAB0C
:1055C0007EAB8FAB98AFA501940125966CAD7DADF8
:1055D0008EAD9FAD25970F94F90665966CAF7DAFA4
:1055E0008EAF9FAF6597A3019201609155127091A4
:1055F000561280915712909158120F941C06A501D3
:1056000094010F94F906A1966CAF7DAF8EAF9FAF5A
:10561000A1972DA93EA94FA958ADCA01B9010E9471
:10562000E8FF20E030E040E05FE30E94E8FF9B01FC
:10563000AC0160E070E080E89FE30F941C062596C3
:105640006CAF7DAF8EAF9FAF25976D962CAD3DAD06
:105650004EAD5FAD6D9729873A874B875C874D8646
:105660005E866F86788A6091700270917102072E53
:10567000000C880B990B0E9489FF20910D0230913C
:105680000E0240910F02509110020E94E8FF2AE0A2
:1056900037ED43E25CE30E94E8FF2D966CAF7DAFEF
:1056A0008EAF9FAF2D970E9485C29B01AC012853FE
:1056B0003F4F4F4F5F4F61962CAF3DAF4EAF5FAF47
:1056C00061974DA45EA46FA478A822242394312C62
:1056D000B9E1DB2EADACBEACA214B30409F414C125
:1056E0000E94D8710E9485C2DC01CB0161962CAD6D
:1056F0003DAD4EAD5FAD6197821B930BA40BB50B17
:10570000B7FD11C00E9485C29B01AC0128533F4FD9
:105710004F4F5F4F61962CAF3DAF4EAF5FAF61977C
:1057200080E00E94F5E7DA94DD2009F441C029A960
:105730003AA94BA95CA925966CAD7DAD8EAD9FAD08
:1057400025970E94E8FF4B015C019201A3016DA91E
:105750007EA98FA998AD0E94E8FFA50194010F943E
:105760001D067B018C019201A30125966CAD7DADD8
:105770008EAD9FAD25970E94E8FF4B015C0129A9E2
:105780003AA94BA95CA96DA97EA98FA998AD0E94E1
:10579000E8FF9B01AC01C501B4010F941C062B016D
:1057A0003C01C701D80189AB9AABABABBCAB4DC0D8
:1057B000B10180E090E00E9487FF2DA93EA94FA98A
:1057C00058AD0E94E8FF4B015C010F94F6066B0197
:1057D0007C01C501B4010F947F084B015C01A70156
:1057E00096016DA57EA58FA598A90E94E8FF2B01C3
:1057F0003C0129AD3AAD4BAD5CADC501B4010E9491
:10580000E8FFA30192010F941D062B013C01A501A5
:1058100094016DA57EA58FA598A90E94E8FF4B0174
:105820005C0129AD3AAD4BAD5CADC701B6010E943C
:10583000E8FF9B01AC01C501B4010F941C0669ABE4
:105840007AAB8BAB9CABF9E1DF2E9201A3012996D9
:105850006CAD7DAD8EAD9FAD29970F941D0669830C
:105860007A838B839C8329A93AA94BA95CA9699661
:105870006CAD7DAD8EAD9FAD69970F941D066D83A8
:105880007E838F83988765962CAD3DAD4EAD5FAD21
:10589000659769857A858B859C850F941D06698738
:1058A0007A878B879C87A1962CAD3DAD4EAD5FADC1
:1058B000A1976D857E858F8598890F941D066D87CC
:1058C0007E878F87988B80911D02882321F0CE01DF
:1058D00001960E94DEBBC09018062D96ECACFDAC84
:1058E0000EAD1FAD2D979E01235F3F4FAE01475F69
:1058F0005F4FBE016B5F7F4FCE0101960E94CDCA04
:105900003FEF231A330AE6CEC09018062D96ECAC72
:10591000FDAC0EAD1FAD2D9725E532E141E552E11D
:105920006DE472E189E492E10E94CDCA0E94863F53
:105930000E9438421DCA0E944342F80184918F019F
:105940000F5F1F4F8111F7CFEBE3F3E084918F01DD
:105950000F5F1F4F882309F40BCA0E944342F801CE
:10596000F5CF80E50E94B941882329F00E941741B4
:105970006B017C0103C0C12CD12C760183E50E9410
:10598000B941882361F00E94574120E030E04AE7A6
:1059900054E40E94E8FF0F9466076B017C010E94AB
:1059A000757580912B02811105C060E081E593E05F
:1059B0000E943EC70E94384280911D0E90911E0E9B
:1059C000A0911F0EB091200EC80ED91EEA1EFB1E1C
:1059D0000E9485C2DC01CB018C199D09AE09BF096B
:1059E000B7FFC6C980E00E94F5E7F2CF0E94757547
:1059F00080910D0290910E02A0910F02B0911002C1
:105A000080938C0590938D05A0938E05B0938F05A0
:105A1000809170029091710290938B0580938A051A
:105A200084E690E090937102809370020E94384265
:105A300081E08093090E88E50E948A41E82E89E57D
:105A40000E948A41082F8AE50E948A41F82EE110BF
:105A500005C0011105C011E0182705C0011102C0E1
:105A600010E001C0182F0E947C3F111105C0E11009
:105A700003C0002309F444C020E030E040EA50E4D1
:105A80006091391270913A1280913B1290913C12C0
:105A90000F941D066093511270935212809353120B
:105AA00090935412209156183091571840915818DD
:105AB000509159180F94430818167CF419821A82D1
:105AC0001B821C829E012F5F3F4F41E552E162E540
:105AD00078E18EE498E10E948D3E111105C0E1103D
